{
  "contractName": "Winenwin",
  "abi": [
    {
      "inputs": [
        {
          "internalType": "string",
          "name": "_uri",
          "type": "string"
        },
        {
          "internalType": "string",
          "name": "_name",
          "type": "string"
        },
        {
          "internalType": "string",
          "name": "_symbol",
          "type": "string"
        }
      ],
      "stateMutability": "nonpayable",
      "type": "constructor"
    },
    {
      "anonymous": false,
      "inputs": [
        {
          "indexed": true,
          "internalType": "address",
          "name": "account",
          "type": "address"
        },
        {
          "indexed": true,
          "internalType": "address",
          "name": "operator",
          "type": "address"
        },
        {
          "indexed": false,
          "internalType": "bool",
          "name": "approved",
          "type": "bool"
        }
      ],
      "name": "ApprovalForAll",
      "type": "event"
    },
    {
      "anonymous": false,
      "inputs": [
        {
          "indexed": true,
          "internalType": "address",
          "name": "previousOwner",
          "type": "address"
        },
        {
          "indexed": true,
          "internalType": "address",
          "name": "newOwner",
          "type": "address"
        }
      ],
      "name": "OwnershipTransferred",
      "type": "event"
    },
    {
      "anonymous": false,
      "inputs": [
        {
          "indexed": true,
          "internalType": "address",
          "name": "operator",
          "type": "address"
        },
        {
          "indexed": true,
          "internalType": "address",
          "name": "from",
          "type": "address"
        },
        {
          "indexed": true,
          "internalType": "address",
          "name": "to",
          "type": "address"
        },
        {
          "indexed": false,
          "internalType": "uint256[]",
          "name": "ids",
          "type": "uint256[]"
        },
        {
          "indexed": false,
          "internalType": "uint256[]",
          "name": "values",
          "type": "uint256[]"
        }
      ],
      "name": "TransferBatch",
      "type": "event"
    },
    {
      "anonymous": false,
      "inputs": [
        {
          "indexed": true,
          "internalType": "address",
          "name": "operator",
          "type": "address"
        },
        {
          "indexed": true,
          "internalType": "address",
          "name": "from",
          "type": "address"
        },
        {
          "indexed": true,
          "internalType": "address",
          "name": "to",
          "type": "address"
        },
        {
          "indexed": false,
          "internalType": "uint256",
          "name": "id",
          "type": "uint256"
        },
        {
          "indexed": false,
          "internalType": "uint256",
          "name": "value",
          "type": "uint256"
        }
      ],
      "name": "TransferSingle",
      "type": "event"
    },
    {
      "anonymous": false,
      "inputs": [
        {
          "indexed": false,
          "internalType": "string",
          "name": "value",
          "type": "string"
        },
        {
          "indexed": true,
          "internalType": "uint256",
          "name": "id",
          "type": "uint256"
        }
      ],
      "name": "URI",
      "type": "event"
    },
    {
      "stateMutability": "nonpayable",
      "type": "fallback"
    },
    {
      "inputs": [
        {
          "internalType": "address",
          "name": "account",
          "type": "address"
        },
        {
          "internalType": "uint256",
          "name": "id",
          "type": "uint256"
        }
      ],
      "name": "balanceOf",
      "outputs": [
        {
          "internalType": "uint256",
          "name": "",
          "type": "uint256"
        }
      ],
      "stateMutability": "view",
      "type": "function",
      "constant": true
    },
    {
      "inputs": [
        {
          "internalType": "address[]",
          "name": "accounts",
          "type": "address[]"
        },
        {
          "internalType": "uint256[]",
          "name": "ids",
          "type": "uint256[]"
        }
      ],
      "name": "balanceOfBatch",
      "outputs": [
        {
          "internalType": "uint256[]",
          "name": "",
          "type": "uint256[]"
        }
      ],
      "stateMutability": "view",
      "type": "function",
      "constant": true
    },
    {
      "inputs": [
        {
          "internalType": "address",
          "name": "account",
          "type": "address"
        },
        {
          "internalType": "uint256",
          "name": "id",
          "type": "uint256"
        },
        {
          "internalType": "uint256",
          "name": "value",
          "type": "uint256"
        }
      ],
      "name": "burn",
      "outputs": [],
      "stateMutability": "nonpayable",
      "type": "function"
    },
    {
      "inputs": [
        {
          "internalType": "address",
          "name": "account",
          "type": "address"
        },
        {
          "internalType": "uint256[]",
          "name": "ids",
          "type": "uint256[]"
        },
        {
          "internalType": "uint256[]",
          "name": "values",
          "type": "uint256[]"
        }
      ],
      "name": "burnBatch",
      "outputs": [],
      "stateMutability": "nonpayable",
      "type": "function"
    },
    {
      "inputs": [
        {
          "internalType": "uint256",
          "name": "id",
          "type": "uint256"
        }
      ],
      "name": "exists",
      "outputs": [
        {
          "internalType": "bool",
          "name": "",
          "type": "bool"
        }
      ],
      "stateMutability": "view",
      "type": "function",
      "constant": true
    },
    {
      "inputs": [
        {
          "internalType": "address",
          "name": "account",
          "type": "address"
        },
        {
          "internalType": "address",
          "name": "operator",
          "type": "address"
        }
      ],
      "name": "isApprovedForAll",
      "outputs": [
        {
          "internalType": "bool",
          "name": "",
          "type": "bool"
        }
      ],
      "stateMutability": "view",
      "type": "function",
      "constant": true
    },
    {
      "inputs": [],
      "name": "name",
      "outputs": [
        {
          "internalType": "string",
          "name": "",
          "type": "string"
        }
      ],
      "stateMutability": "view",
      "type": "function",
      "constant": true
    },
    {
      "inputs": [],
      "name": "owner",
      "outputs": [
        {
          "internalType": "address",
          "name": "",
          "type": "address"
        }
      ],
      "stateMutability": "view",
      "type": "function",
      "constant": true
    },
    {
      "inputs": [],
      "name": "renounceOwnership",
      "outputs": [],
      "stateMutability": "nonpayable",
      "type": "function"
    },
    {
      "inputs": [
        {
          "internalType": "address",
          "name": "from",
          "type": "address"
        },
        {
          "internalType": "address",
          "name": "to",
          "type": "address"
        },
        {
          "internalType": "uint256[]",
          "name": "ids",
          "type": "uint256[]"
        },
        {
          "internalType": "uint256[]",
          "name": "amounts",
          "type": "uint256[]"
        },
        {
          "internalType": "bytes",
          "name": "data",
          "type": "bytes"
        }
      ],
      "name": "safeBatchTransferFrom",
      "outputs": [],
      "stateMutability": "nonpayable",
      "type": "function"
    },
    {
      "inputs": [
        {
          "internalType": "address",
          "name": "from",
          "type": "address"
        },
        {
          "internalType": "address",
          "name": "to",
          "type": "address"
        },
        {
          "internalType": "uint256",
          "name": "id",
          "type": "uint256"
        },
        {
          "internalType": "uint256",
          "name": "amount",
          "type": "uint256"
        },
        {
          "internalType": "bytes",
          "name": "data",
          "type": "bytes"
        }
      ],
      "name": "safeTransferFrom",
      "outputs": [],
      "stateMutability": "nonpayable",
      "type": "function"
    },
    {
      "inputs": [
        {
          "internalType": "address",
          "name": "operator",
          "type": "address"
        },
        {
          "internalType": "bool",
          "name": "approved",
          "type": "bool"
        }
      ],
      "name": "setApprovalForAll",
      "outputs": [],
      "stateMutability": "nonpayable",
      "type": "function"
    },
    {
      "inputs": [
        {
          "internalType": "bytes4",
          "name": "interfaceId",
          "type": "bytes4"
        }
      ],
      "name": "supportsInterface",
      "outputs": [
        {
          "internalType": "bool",
          "name": "",
          "type": "bool"
        }
      ],
      "stateMutability": "view",
      "type": "function",
      "constant": true
    },
    {
      "inputs": [],
      "name": "symbol",
      "outputs": [
        {
          "internalType": "string",
          "name": "",
          "type": "string"
        }
      ],
      "stateMutability": "view",
      "type": "function",
      "constant": true
    },
    {
      "inputs": [
        {
          "internalType": "uint256",
          "name": "id",
          "type": "uint256"
        }
      ],
      "name": "totalSupply",
      "outputs": [
        {
          "internalType": "uint256",
          "name": "",
          "type": "uint256"
        }
      ],
      "stateMutability": "view",
      "type": "function",
      "constant": true
    },
    {
      "inputs": [
        {
          "internalType": "address",
          "name": "newOwner",
          "type": "address"
        }
      ],
      "name": "transferOwnership",
      "outputs": [],
      "stateMutability": "nonpayable",
      "type": "function"
    },
    {
      "inputs": [
        {
          "internalType": "address",
          "name": "holder",
          "type": "address"
        },
        {
          "internalType": "uint256[]",
          "name": "tokenIds",
          "type": "uint256[]"
        },
        {
          "internalType": "uint256[]",
          "name": "amounts",
          "type": "uint256[]"
        },
        {
          "internalType": "string",
          "name": "baseURI",
          "type": "string"
        },
        {
          "internalType": "string",
          "name": "_tokenURI",
          "type": "string"
        }
      ],
      "name": "mintMembershipNFTs",
      "outputs": [],
      "stateMutability": "nonpayable",
      "type": "function"
    },
    {
      "inputs": [
        {
          "internalType": "address",
          "name": "holder",
          "type": "address"
        },
        {
          "internalType": "uint256",
          "name": "tokenId",
          "type": "uint256"
        },
        {
          "internalType": "uint256",
          "name": "amount",
          "type": "uint256"
        }
      ],
      "name": "transferMembershipNFT",
      "outputs": [],
      "stateMutability": "nonpayable",
      "type": "function"
    },
    {
      "inputs": [
        {
          "internalType": "address[]",
          "name": "holders",
          "type": "address[]"
        },
        {
          "internalType": "uint256",
          "name": "tokenId",
          "type": "uint256"
        },
        {
          "internalType": "uint256",
          "name": "amount",
          "type": "uint256"
        },
        {
          "internalType": "string",
          "name": "baseURI",
          "type": "string"
        },
        {
          "internalType": "string",
          "name": "_tokenURI",
          "type": "string"
        }
      ],
      "name": "mintMembershipBatchNFTs",
      "outputs": [],
      "stateMutability": "nonpayable",
      "type": "function"
    },
    {
      "inputs": [
        {
          "internalType": "address[]",
          "name": "holders",
          "type": "address[]"
        },
        {
          "internalType": "uint256",
          "name": "tokenId",
          "type": "uint256"
        },
        {
          "internalType": "uint256",
          "name": "amount",
          "type": "uint256"
        }
      ],
      "name": "transferMembershipBatchNFTs",
      "outputs": [],
      "stateMutability": "nonpayable",
      "type": "function"
    },
    {
      "inputs": [
        {
          "internalType": "string",
          "name": "newBaseURI",
          "type": "string"
        }
      ],
      "name": "setBaseURI",
      "outputs": [],
      "stateMutability": "nonpayable",
      "type": "function"
    },
    {
      "inputs": [
        {
          "internalType": "uint256",
          "name": "tokenId",
          "type": "uint256"
        },
        {
          "internalType": "string",
          "name": "tokenURI",
          "type": "string"
        }
      ],
      "name": "setURI",
      "outputs": [],
      "stateMutability": "nonpayable",
      "type": "function"
    },
    {
      "inputs": [
        {
          "internalType": "uint256",
          "name": "tokenId",
          "type": "uint256"
        }
      ],
      "name": "uri",
      "outputs": [
        {
          "internalType": "string",
          "name": "",
          "type": "string"
        }
      ],
      "stateMutability": "view",
      "type": "function",
      "constant": true
    }
  ],
  "bytecode": "0x608060405260405180602001604052806000815250600590805190602001906200002b9291906200020c565b506040518060200160405280600081525060099080519060200190620000539291906200020c565b503480156200006157600080fd5b50604051620051bf380380620051bf833981810160405281019062000087919062000459565b8262000099816200010660201b60201c565b50620000ba620000ae6200012260201b60201c565b6200012a60201b60201c565b8160079080519060200190620000d29291906200020c565b508060089080519060200190620000eb9291906200020c565b50620000fd83620001f060201b60201c565b50505062000577565b80600290805190602001906200011e9291906200020c565b5050565b600033905090565b6000600360009054906101000a900473ffffffffffffffffffffffffffffffffffffffff16905081600360006101000a81548173ffffffffffffffffffffffffffffffffffffffff021916908373ffffffffffffffffffffffffffffffffffffffff1602179055508173ffffffffffffffffffffffffffffffffffffffff168173ffffffffffffffffffffffffffffffffffffffff167f8be0079c531659141344cd1fd0a4f28419497f9722a3daafe3b4186f6b6457e060405160405180910390a35050565b8060059080519060200190620002089291906200020c565b5050565b8280546200021a9062000541565b90600052602060002090601f0160209004810192826200023e57600085556200028a565b82601f106200025957805160ff19168380011785556200028a565b828001600101855582156200028a579182015b82811115620002895782518255916020019190600101906200026c565b5b5090506200029991906200029d565b5090565b5b80821115620002b85760008160009055506001016200029e565b5090565b6000604051905090565b600080fd5b600080fd5b600080fd5b600080fd5b6000601f19601f8301169050919050565b7f4e487b7100000000000000000000000000000000000000000000000000000000600052604160045260246000fd5b6200032582620002da565b810181811067ffffffffffffffff82111715620003475762000346620002eb565b5b80604052505050565b60006200035c620002bc565b90506200036a82826200031a565b919050565b600067ffffffffffffffff8211156200038d576200038c620002eb565b5b6200039882620002da565b9050602081019050919050565b60005b83811015620003c5578082015181840152602081019050620003a8565b83811115620003d5576000848401525b50505050565b6000620003f2620003ec846200036f565b62000350565b905082815260208101848484011115620004115762000410620002d5565b5b6200041e848285620003a5565b509392505050565b600082601f8301126200043e576200043d620002d0565b5b815162000450848260208601620003db565b91505092915050565b600080600060608486031215620004755762000474620002c6565b5b600084015167ffffffffffffffff811115620004965762000495620002cb565b5b620004a48682870162000426565b935050602084015167ffffffffffffffff811115620004c857620004c7620002cb565b5b620004d68682870162000426565b925050604084015167ffffffffffffffff811115620004fa57620004f9620002cb565b5b620005088682870162000426565b9150509250925092565b7f4e487b7100000000000000000000000000000000000000000000000000000000600052602260045260246000fd5b600060028204905060018216806200055a57607f821691505b6020821081141562000571576200057062000512565b5b50919050565b614c3880620005876000396000f3fe608060405234801561001057600080fd5b50600436106101505760003560e01c8063715018a6116100c3578063a22cb4651161007c578063a22cb465146103c0578063bd85b039146103dc578063e985e9c51461040c578063f242432a1461043c578063f2fde38b14610458578063f5298aca1461047457610151565b8063715018a6146103265780637c9a5d0714610330578063862440e21461034c5780638b98a2a2146103685780638da5cb5b1461038457806395d89b41146103a257610151565b80632eb2c2d6116101155780632eb2c2d6146102565780634e1273f4146102725780634f558e79146102a257806355f804b3146102d25780635736e245146102ee5780636b20c4541461030a57610151565b8062fdd58e1461018c57806301ffc9a7146101bc57806306fdde03146101ec5780630e89341c1461020a5780631b31f6291461023a57610151565b5b6040517f08c379a000000000000000000000000000000000000000000000000000000000815260040161018390612e44565b60405180910390fd5b6101a660048036038101906101a19190612f0c565b610490565b6040516101b39190612f5b565b60405180910390f35b6101d660048036038101906101d19190612fce565b610559565b6040516101e39190613016565b60405180910390f35b6101f461063b565b60405161020191906130b9565b60405180910390f35b610224600480360381019061021f91906130db565b6106c9565b60405161023191906130b9565b60405180910390f35b610254600480360381019061024f9190613305565b6107ae565b005b610270600480360381019061026b9190613491565b6108fe565b005b61028c60048036038101906102879190613623565b61099f565b6040516102999190613759565b60405180910390f35b6102bc60048036038101906102b791906130db565b610ab8565b6040516102c99190613016565b60405180910390f35b6102ec60048036038101906102e7919061377b565b610acc565b005b610308600480360381019061030391906137c4565b610b25565b005b610324600480360381019061031f9190613833565b610c89565b005b61032e610d26565b005b61034a600480360381019061034591906138be565b610d3a565b005b61036660048036038101906103619190613911565b610dd6565b005b610382600480360381019061037d919061396d565b610e31565b005b61038c610fa6565b6040516103999190613a4b565b60405180910390f35b6103aa610fd0565b6040516103b791906130b9565b60405180910390f35b6103da60048036038101906103d59190613a92565b61105e565b005b6103f660048036038101906103f191906130db565b611074565b6040516104039190612f5b565b60405180910390f35b61042660048036038101906104219190613ad2565b611091565b6040516104339190613016565b60405180910390f35b61045660048036038101906104519190613b12565b611125565b005b610472600480360381019061046d9190613ba9565b6111c6565b005b61048e600480360381019061048991906138be565b61124a565b005b60008073ffffffffffffffffffffffffffffffffffffffff168373ffffffffffffffffffffffffffffffffffffffff161415610501576040517f08c379a00000000000000000000000000000000000000000000000000000000081526004016104f890613c48565b60405180910390fd5b60008083815260200190815260200160002060008473ffffffffffffffffffffffffffffffffffffffff1673ffffffffffffffffffffffffffffffffffffffff16815260200190815260200160002054905092915050565b60007fd9b67a26000000000000000000000000000000000000000000000000000000007bffffffffffffffffffffffffffffffffffffffffffffffffffffffff1916827bffffffffffffffffffffffffffffffffffffffffffffffffffffffff1916148061062457507f0e89341c000000000000000000000000000000000000000000000000000000007bffffffffffffffffffffffffffffffffffffffffffffffffffffffff1916827bffffffffffffffffffffffffffffffffffffffffffffffffffffffff1916145b806106345750610633826112e7565b5b9050919050565b6007805461064890613c97565b80601f016020809104026020016040519081016040528092919081815260200182805461067490613c97565b80156106c15780601f10610696576101008083540402835291602001916106c1565b820191906000526020600020905b8154815290600101906020018083116106a457829003601f168201915b505050505081565b60606000600a600084815260200190815260200160002080546106eb90613c97565b80601f016020809104026020016040519081016040528092919081815260200182805461071790613c97565b80156107645780601f1061073957610100808354040283529160200191610764565b820191906000526020600020905b81548152906001019060200180831161074757829003601f168201915b5050505050905060008151116107825761077d83611351565b6107a6565b600981604051602001610796929190613d99565b6040516020818303038152906040525b915050919050565b6107b6611436565b600073ffffffffffffffffffffffffffffffffffffffff168573ffffffffffffffffffffffffffffffffffffffff161415610826576040517f08c379a000000000000000000000000000000000000000000000000000000000815260040161081d90613e09565b60405180910390fd5b600083511161086a576040517f08c379a000000000000000000000000000000000000000000000000000000000815260040161086190613e75565b60405180910390fd5b60008151116108ae576040517f08c379a00000000000000000000000000000000000000000000000000000000081526004016108a590613ee1565b60405180910390fd5b6108b7826114b4565b6108dc846000815181106108ce576108cd613f01565b5b6020026020010151826114ce565b6108f78585856040518060200160405280600081525061153a565b5050505050565b610906611767565b73ffffffffffffffffffffffffffffffffffffffff168573ffffffffffffffffffffffffffffffffffffffff16148061094c575061094b85610946611767565b611091565b5b61098b576040517f08c379a000000000000000000000000000000000000000000000000000000000815260040161098290613fa2565b60405180910390fd5b610998858585858561176f565b5050505050565b606081518351146109e5576040517f08c379a00000000000000000000000000000000000000000000000000000000081526004016109dc90614034565b60405180910390fd5b6000835167ffffffffffffffff811115610a0257610a0161310d565b5b604051908082528060200260200182016040528015610a305781602001602082028036833780820191505090505b50905060005b8451811015610aad57610a7d858281518110610a5557610a54613f01565b5b6020026020010151858381518110610a7057610a6f613f01565b5b6020026020010151610490565b828281518110610a9057610a8f613f01565b5b60200260200101818152505080610aa690614083565b9050610a36565b508091505092915050565b600080610ac483611074565b119050919050565b610ad4611436565b600081511415610b19576040517f08c379a0000000000000000000000000000000000000000000000000000000008152600401610b1090614118565b60405180910390fd5b610b22816114b4565b50565b6000835111610b69576040517f08c379a0000000000000000000000000000000000000000000000000000000008152600401610b6090614184565b60405180910390fd5b6000811415610bad576040517f08c379a0000000000000000000000000000000000000000000000000000000008152600401610ba4906141f0565b60405180910390fd5b60005b8351811015610c83576000848281518110610bce57610bcd613f01565b5b60200260200101519050600073ffffffffffffffffffffffffffffffffffffffff168173ffffffffffffffffffffffffffffffffffffffff161415610c48576040517f08c379a0000000000000000000000000000000000000000000000000000000008152600401610c3f90613e09565b60405180910390fd5b610c5381600161105e565b610c6f3382868660405180602001604052806000815250611125565b508080610c7b90614083565b915050610bb0565b50505050565b610c91611767565b73ffffffffffffffffffffffffffffffffffffffff168373ffffffffffffffffffffffffffffffffffffffff161480610cd75750610cd683610cd1611767565b611091565b5b610d16576040517f08c379a0000000000000000000000000000000000000000000000000000000008152600401610d0d90613fa2565b60405180910390fd5b610d21838383611a91565b505050565b610d2e611436565b610d386000611d60565b565b600073ffffffffffffffffffffffffffffffffffffffff168373ffffffffffffffffffffffffffffffffffffffff161415610daa576040517f08c379a0000000000000000000000000000000000000000000000000000000008152600401610da190613e09565b60405180910390fd5b610db583600161105e565b610dd13384848460405180602001604052806000815250611125565b505050565b610dde611436565b600081511415610e23576040517f08c379a0000000000000000000000000000000000000000000000000000000008152600401610e1a9061425c565b60405180910390fd5b610e2d82826114ce565b5050565b610e39611436565b6000831415610e7d576040517f08c379a0000000000000000000000000000000000000000000000000000000008152600401610e74906141f0565b60405180910390fd5b6000855111610ec1576040517f08c379a0000000000000000000000000000000000000000000000000000000008152600401610eb890614184565b60405180910390fd5b610eca826114b4565b60005b8551811015610f9e576000868281518110610eeb57610eea613f01565b5b60200260200101519050600073ffffffffffffffffffffffffffffffffffffffff168173ffffffffffffffffffffffffffffffffffffffff161415610f65576040517f08c379a0000000000000000000000000000000000000000000000000000000008152600401610f5c90613e09565b60405180910390fd5b610f6f86846114ce565b610f8a81878760405180602001604052806000815250611e26565b508080610f9690614083565b915050610ecd565b505050505050565b6000600360009054906101000a900473ffffffffffffffffffffffffffffffffffffffff16905090565b60088054610fdd90613c97565b80601f016020809104026020016040519081016040528092919081815260200182805461100990613c97565b80156110565780601f1061102b57610100808354040283529160200191611056565b820191906000526020600020905b81548152906001019060200180831161103957829003601f168201915b505050505081565b611070611069611767565b8383611fd7565b5050565b600060046000838152602001908152602001600020549050919050565b6000600160008473ffffffffffffffffffffffffffffffffffffffff1673ffffffffffffffffffffffffffffffffffffffff16815260200190815260200160002060008373ffffffffffffffffffffffffffffffffffffffff1673ffffffffffffffffffffffffffffffffffffffff16815260200190815260200160002060009054906101000a900460ff16905092915050565b61112d611767565b73ffffffffffffffffffffffffffffffffffffffff168573ffffffffffffffffffffffffffffffffffffffff16148061117357506111728561116d611767565b611091565b5b6111b2576040517f08c379a00000000000000000000000000000000000000000000000000000000081526004016111a990613fa2565b60405180910390fd5b6111bf8585858585612144565b5050505050565b6111ce611436565b600073ffffffffffffffffffffffffffffffffffffffff168173ffffffffffffffffffffffffffffffffffffffff16141561123e576040517f08c379a0000000000000000000000000000000000000000000000000000000008152600401611235906142ee565b60405180910390fd5b61124781611d60565b50565b611252611767565b73ffffffffffffffffffffffffffffffffffffffff168373ffffffffffffffffffffffffffffffffffffffff161480611298575061129783611292611767565b611091565b5b6112d7576040517f08c379a00000000000000000000000000000000000000000000000000000000081526004016112ce90613fa2565b60405180910390fd5b6112e28383836123e0565b505050565b60007f01ffc9a7000000000000000000000000000000000000000000000000000000007bffffffffffffffffffffffffffffffffffffffffffffffffffffffff1916827bffffffffffffffffffffffffffffffffffffffffffffffffffffffff1916149050919050565b6060600060066000848152602001908152602001600020805461137390613c97565b80601f016020809104026020016040519081016040528092919081815260200182805461139f90613c97565b80156113ec5780601f106113c1576101008083540402835291602001916113ec565b820191906000526020600020905b8154815290600101906020018083116113cf57829003601f168201915b50505050509050600081511161140a5761140583612627565b61142e565b60058160405160200161141e929190613d99565b6040516020818303038152906040525b915050919050565b61143e611767565b73ffffffffffffffffffffffffffffffffffffffff1661145c610fa6565b73ffffffffffffffffffffffffffffffffffffffff16146114b2576040517f08c379a00000000000000000000000000000000000000000000000000000000081526004016114a99061435a565b60405180910390fd5b565b80600590805190602001906114ca929190612d1e565b5050565b806006600084815260200190815260200160002090805190602001906114f5929190612d1e565b50817f6bb7ff708619ba0610cba295a58592e0451dee2622938c8755667688daf3529b611521846106c9565b60405161152e91906130b9565b60405180910390a25050565b600073ffffffffffffffffffffffffffffffffffffffff168473ffffffffffffffffffffffffffffffffffffffff1614156115aa576040517f08c379a00000000000000000000000000000000000000000000000000000000081526004016115a1906143ec565b60405180910390fd5b81518351146115ee576040517f08c379a00000000000000000000000000000000000000000000000000000000081526004016115e59061447e565b60405180910390fd5b60006115f8611767565b9050611609816000878787876126bb565b60005b84518110156116c25783818151811061162857611627613f01565b5b602002602001015160008087848151811061164657611645613f01565b5b6020026020010151815260200190815260200160002060008873ffffffffffffffffffffffffffffffffffffffff1673ffffffffffffffffffffffffffffffffffffffff16815260200190815260200160002060008282546116a8919061449e565b9250508190555080806116ba90614083565b91505061160c565b508473ffffffffffffffffffffffffffffffffffffffff16600073ffffffffffffffffffffffffffffffffffffffff168273ffffffffffffffffffffffffffffffffffffffff167f4a39dc06d4c0dbc64b70af90fd698a233a518aa5d07e595d983b8c0526c8f7fb878760405161173a9291906144f4565b60405180910390a4611751816000878787876126d1565b611760816000878787876126d9565b5050505050565b600033905090565b81518351146117b3576040517f08c379a00000000000000000000000000000000000000000000000000000000081526004016117aa9061447e565b60405180910390fd5b600073ffffffffffffffffffffffffffffffffffffffff168473ffffffffffffffffffffffffffffffffffffffff161415611823576040517f08c379a000000000000000000000000000000000000000000000000000000000815260040161181a9061459d565b60405180910390fd5b600061182d611767565b905061183d8187878787876126bb565b60005b84518110156119ee57600085828151811061185e5761185d613f01565b5b60200260200101519050600085838151811061187d5761187c613f01565b5b60200260200101519050600080600084815260200190815260200160002060008b73ffffffffffffffffffffffffffffffffffffffff1673ffffffffffffffffffffffffffffffffffffffff1681526020019081526020016000205490508181101561191e576040517f08c379a00000000000000000000000000000000000000000000000000000000081526004016119159061462f565b60405180910390fd5b81810360008085815260200190815260200160002060008c73ffffffffffffffffffffffffffffffffffffffff1673ffffffffffffffffffffffffffffffffffffffff168152602001908152602001600020819055508160008085815260200190815260200160002060008b73ffffffffffffffffffffffffffffffffffffffff1673ffffffffffffffffffffffffffffffffffffffff16815260200190815260200160002060008282546119d3919061449e565b92505081905550505050806119e790614083565b9050611840565b508473ffffffffffffffffffffffffffffffffffffffff168673ffffffffffffffffffffffffffffffffffffffff168273ffffffffffffffffffffffffffffffffffffffff167f4a39dc06d4c0dbc64b70af90fd698a233a518aa5d07e595d983b8c0526c8f7fb8787604051611a659291906144f4565b60405180910390a4611a7b8187878787876126d1565b611a898187878787876126d9565b505050505050565b600073ffffffffffffffffffffffffffffffffffffffff168373ffffffffffffffffffffffffffffffffffffffff161415611b01576040517f08c379a0000000000000000000000000000000000000000000000000000000008152600401611af8906146c1565b60405180910390fd5b8051825114611b45576040517f08c379a0000000000000000000000000000000000000000000000000000000008152600401611b3c9061447e565b60405180910390fd5b6000611b4f611767565b9050611b6f818560008686604051806020016040528060008152506126bb565b60005b8351811015611cbc576000848281518110611b9057611b8f613f01565b5b602002602001015190506000848381518110611baf57611bae613f01565b5b60200260200101519050600080600084815260200190815260200160002060008973ffffffffffffffffffffffffffffffffffffffff1673ffffffffffffffffffffffffffffffffffffffff16815260200190815260200160002054905081811015611c50576040517f08c379a0000000000000000000000000000000000000000000000000000000008152600401611c4790614753565b60405180910390fd5b81810360008085815260200190815260200160002060008a73ffffffffffffffffffffffffffffffffffffffff1673ffffffffffffffffffffffffffffffffffffffff168152602001908152602001600020819055505050508080611cb490614083565b915050611b72565b50600073ffffffffffffffffffffffffffffffffffffffff168473ffffffffffffffffffffffffffffffffffffffff168273ffffffffffffffffffffffffffffffffffffffff167f4a39dc06d4c0dbc64b70af90fd698a233a518aa5d07e595d983b8c0526c8f7fb8686604051611d349291906144f4565b60405180910390a4611d5a818560008686604051806020016040528060008152506126d1565b50505050565b6000600360009054906101000a900473ffffffffffffffffffffffffffffffffffffffff16905081600360006101000a81548173ffffffffffffffffffffffffffffffffffffffff021916908373ffffffffffffffffffffffffffffffffffffffff1602179055508173ffffffffffffffffffffffffffffffffffffffff168173ffffffffffffffffffffffffffffffffffffffff167f8be0079c531659141344cd1fd0a4f28419497f9722a3daafe3b4186f6b6457e060405160405180910390a35050565b600073ffffffffffffffffffffffffffffffffffffffff168473ffffffffffffffffffffffffffffffffffffffff161415611e96576040517f08c379a0000000000000000000000000000000000000000000000000000000008152600401611e8d906143ec565b60405180910390fd5b6000611ea0611767565b90506000611ead856128c0565b90506000611eba856128c0565b9050611ecb836000898585896126bb565b8460008088815260200190815260200160002060008973ffffffffffffffffffffffffffffffffffffffff1673ffffffffffffffffffffffffffffffffffffffff1681526020019081526020016000206000828254611f2a919061449e565b925050819055508673ffffffffffffffffffffffffffffffffffffffff16600073ffffffffffffffffffffffffffffffffffffffff168473ffffffffffffffffffffffffffffffffffffffff167fc3d58168c5ae7397731d063d5bbf3d657854427343f4c083240f7aacaa2d0f628989604051611fa8929190614773565b60405180910390a4611fbf836000898585896126d1565b611fce8360008989898961293a565b50505050505050565b8173ffffffffffffffffffffffffffffffffffffffff168373ffffffffffffffffffffffffffffffffffffffff161415612046576040517f08c379a000000000000000000000000000000000000000000000000000000000815260040161203d9061480e565b60405180910390fd5b80600160008573ffffffffffffffffffffffffffffffffffffffff1673ffffffffffffffffffffffffffffffffffffffff16815260200190815260200160002060008473ffffffffffffffffffffffffffffffffffffffff1673ffffffffffffffffffffffffffffffffffffffff16815260200190815260200160002060006101000a81548160ff0219169083151502179055508173ffffffffffffffffffffffffffffffffffffffff168373ffffffffffffffffffffffffffffffffffffffff167f17307eab39ab6107e8899845ad3d59bd9653f200f220920489ca2b5937696c31836040516121379190613016565b60405180910390a3505050565b600073ffffffffffffffffffffffffffffffffffffffff168473ffffffffffffffffffffffffffffffffffffffff1614156121b4576040517f08c379a00000000000000000000000000000000000000000000000000000000081526004016121ab9061459d565b60405180910390fd5b60006121be611767565b905060006121cb856128c0565b905060006121d8856128c0565b90506121e88389898585896126bb565b600080600088815260200190815260200160002060008a73ffffffffffffffffffffffffffffffffffffffff1673ffffffffffffffffffffffffffffffffffffffff1681526020019081526020016000205490508581101561227f576040517f08c379a00000000000000000000000000000000000000000000000000000000081526004016122769061462f565b60405180910390fd5b85810360008089815260200190815260200160002060008b73ffffffffffffffffffffffffffffffffffffffff1673ffffffffffffffffffffffffffffffffffffffff168152602001908152602001600020819055508560008089815260200190815260200160002060008a73ffffffffffffffffffffffffffffffffffffffff1673ffffffffffffffffffffffffffffffffffffffff1681526020019081526020016000206000828254612334919061449e565b925050819055508773ffffffffffffffffffffffffffffffffffffffff168973ffffffffffffffffffffffffffffffffffffffff168573ffffffffffffffffffffffffffffffffffffffff167fc3d58168c5ae7397731d063d5bbf3d657854427343f4c083240f7aacaa2d0f628a8a6040516123b1929190614773565b60405180910390a46123c7848a8a86868a6126d1565b6123d5848a8a8a8a8a61293a565b505050505050505050565b600073ffffffffffffffffffffffffffffffffffffffff168373ffffffffffffffffffffffffffffffffffffffff161415612450576040517f08c379a0000000000000000000000000000000000000000000000000000000008152600401612447906146c1565b60405180910390fd5b600061245a611767565b90506000612467846128c0565b90506000612474846128c0565b9050612494838760008585604051806020016040528060008152506126bb565b600080600087815260200190815260200160002060008873ffffffffffffffffffffffffffffffffffffffff1673ffffffffffffffffffffffffffffffffffffffff1681526020019081526020016000205490508481101561252b576040517f08c379a000000000000000000000000000000000000000000000000000000000815260040161252290614753565b60405180910390fd5b84810360008088815260200190815260200160002060008973ffffffffffffffffffffffffffffffffffffffff1673ffffffffffffffffffffffffffffffffffffffff16815260200190815260200160002081905550600073ffffffffffffffffffffffffffffffffffffffff168773ffffffffffffffffffffffffffffffffffffffff168573ffffffffffffffffffffffffffffffffffffffff167fc3d58168c5ae7397731d063d5bbf3d657854427343f4c083240f7aacaa2d0f6289896040516125f8929190614773565b60405180910390a461261e848860008686604051806020016040528060008152506126d1565b50505050505050565b60606002805461263690613c97565b80601f016020809104026020016040519081016040528092919081815260200182805461266290613c97565b80156126af5780601f10612684576101008083540402835291602001916126af565b820191906000526020600020905b81548152906001019060200180831161269257829003601f168201915b50505050509050919050565b6126c9868686868686612b21565b505050505050565b505050505050565b6126f88473ffffffffffffffffffffffffffffffffffffffff16612cf3565b156128b8578373ffffffffffffffffffffffffffffffffffffffff1663bc197c8187878686866040518663ffffffff1660e01b815260040161273e959493929190614883565b602060405180830381600087803b15801561275857600080fd5b505af192505050801561278957506040513d601f19601f820116820180604052508101906127869190614900565b60015b61282f5761279561493a565b806308c379a014156127f257506127aa61495c565b806127b557506127f4565b806040517f08c379a00000000000000000000000000000000000000000000000000000000081526004016127e991906130b9565b60405180910390fd5b505b6040517f08c379a000000000000000000000000000000000000000000000000000000000815260040161282690614a64565b60405180910390fd5b63bc197c8160e01b7bffffffffffffffffffffffffffffffffffffffffffffffffffffffff1916817bffffffffffffffffffffffffffffffffffffffffffffffffffffffff1916146128b6576040517f08c379a00000000000000000000000000000000000000000000000000000000081526004016128ad90614af6565b60405180910390fd5b505b505050505050565b60606000600167ffffffffffffffff8111156128df576128de61310d565b5b60405190808252806020026020018201604052801561290d5781602001602082028036833780820191505090505b509050828160008151811061292557612924613f01565b5b60200260200101818152505080915050919050565b6129598473ffffffffffffffffffffffffffffffffffffffff16612cf3565b15612b19578373ffffffffffffffffffffffffffffffffffffffff1663f23a6e6187878686866040518663ffffffff1660e01b815260040161299f959493929190614b16565b602060405180830381600087803b1580156129b957600080fd5b505af19250505080156129ea57506040513d601f19601f820116820180604052508101906129e79190614900565b60015b612a90576129f661493a565b806308c379a01415612a535750612a0b61495c565b80612a165750612a55565b806040517f08c379a0000000000000000000000000000000000000000000000000000000008152600401612a4a91906130b9565b60405180910390fd5b505b6040517f08c379a0000000000000000000000000000000000000000000000000000000008152600401612a8790614a64565b60405180910390fd5b63f23a6e6160e01b7bffffffffffffffffffffffffffffffffffffffffffffffffffffffff1916817bffffffffffffffffffffffffffffffffffffffffffffffffffffffff191614612b17576040517f08c379a0000000000000000000000000000000000000000000000000000000008152600401612b0e90614af6565b60405180910390fd5b505b505050505050565b612b2f868686868686612d16565b600073ffffffffffffffffffffffffffffffffffffffff168573ffffffffffffffffffffffffffffffffffffffff161415612be15760005b8351811015612bdf57828181518110612b8357612b82613f01565b5b602002602001015160046000868481518110612ba257612ba1613f01565b5b602002602001015181526020019081526020016000206000828254612bc7919061449e565b9250508190555080612bd890614083565b9050612b67565b505b600073ffffffffffffffffffffffffffffffffffffffff168473ffffffffffffffffffffffffffffffffffffffff161415612ceb5760005b8351811015612ce9576000848281518110612c3757612c36613f01565b5b602002602001015190506000848381518110612c5657612c55613f01565b5b6020026020010151905060006004600084815260200190815260200160002054905081811015612cbb576040517f08c379a0000000000000000000000000000000000000000000000000000000008152600401612cb290614be2565b60405180910390fd5b818103600460008581526020019081526020016000208190555050505080612ce290614083565b9050612c19565b505b505050505050565b6000808273ffffffffffffffffffffffffffffffffffffffff163b119050919050565b505050505050565b828054612d2a90613c97565b90600052602060002090601f016020900481019282612d4c5760008555612d93565b82601f10612d6557805160ff1916838001178555612d93565b82800160010185558215612d93579182015b82811115612d92578251825591602001919060010190612d77565b5b509050612da09190612da4565b5090565b5b80821115612dbd576000816000905550600101612da5565b5090565b600082825260208201905092915050565b7f46616c6c6261636b2066756e6374696f6e206973206e6f7420737570706f727460008201527f6564000000000000000000000000000000000000000000000000000000000000602082015250565b6000612e2e602283612dc1565b9150612e3982612dd2565b604082019050919050565b60006020820190508181036000830152612e5d81612e21565b9050919050565b6000604051905090565b600080fd5b600080fd5b600073ffffffffffffffffffffffffffffffffffffffff82169050919050565b6000612ea382612e78565b9050919050565b612eb381612e98565b8114612ebe57600080fd5b50565b600081359050612ed081612eaa565b92915050565b6000819050919050565b612ee981612ed6565b8114612ef457600080fd5b50565b600081359050612f0681612ee0565b92915050565b60008060408385031215612f2357612f22612e6e565b5b6000612f3185828601612ec1565b9250506020612f4285828601612ef7565b9150509250929050565b612f5581612ed6565b82525050565b6000602082019050612f706000830184612f4c565b92915050565b60007fffffffff0000000000000000000000000000000000000000000000000000000082169050919050565b612fab81612f76565b8114612fb657600080fd5b50565b600081359050612fc881612fa2565b92915050565b600060208284031215612fe457612fe3612e6e565b5b6000612ff284828501612fb9565b91505092915050565b60008115159050919050565b61301081612ffb565b82525050565b600060208201905061302b6000830184613007565b92915050565b600081519050919050565b60005b8381101561305a57808201518184015260208101905061303f565b83811115613069576000848401525b50505050565b6000601f19601f8301169050919050565b600061308b82613031565b6130958185612dc1565b93506130a581856020860161303c565b6130ae8161306f565b840191505092915050565b600060208201905081810360008301526130d38184613080565b905092915050565b6000602082840312156130f1576130f0612e6e565b5b60006130ff84828501612ef7565b91505092915050565b600080fd5b7f4e487b7100000000000000000000000000000000000000000000000000000000600052604160045260246000fd5b6131458261306f565b810181811067ffffffffffffffff821117156131645761316361310d565b5b80604052505050565b6000613177612e64565b9050613183828261313c565b919050565b600067ffffffffffffffff8211156131a3576131a261310d565b5b602082029050602081019050919050565b600080fd5b60006131cc6131c784613188565b61316d565b905080838252602082019050602084028301858111156131ef576131ee6131b4565b5b835b8181101561321857806132048882612ef7565b8452602084019350506020810190506131f1565b5050509392505050565b600082601f83011261323757613236613108565b5b81356132478482602086016131b9565b91505092915050565b600080fd5b600067ffffffffffffffff8211156132705761326f61310d565b5b6132798261306f565b9050602081019050919050565b82818337600083830152505050565b60006132a86132a384613255565b61316d565b9050828152602081018484840111156132c4576132c3613250565b5b6132cf848285613286565b509392505050565b600082601f8301126132ec576132eb613108565b5b81356132fc848260208601613295565b91505092915050565b600080600080600060a0868803121561332157613320612e6e565b5b600061332f88828901612ec1565b955050602086013567ffffffffffffffff8111156133505761334f612e73565b5b61335c88828901613222565b945050604086013567ffffffffffffffff81111561337d5761337c612e73565b5b61338988828901613222565b935050606086013567ffffffffffffffff8111156133aa576133a9612e73565b5b6133b6888289016132d7565b925050608086013567ffffffffffffffff8111156133d7576133d6612e73565b5b6133e3888289016132d7565b9150509295509295909350565b600067ffffffffffffffff82111561340b5761340a61310d565b5b6134148261306f565b9050602081019050919050565b600061343461342f846133f0565b61316d565b9050828152602081018484840111156134505761344f613250565b5b61345b848285613286565b509392505050565b600082601f83011261347857613477613108565b5b8135613488848260208601613421565b91505092915050565b600080600080600060a086880312156134ad576134ac612e6e565b5b60006134bb88828901612ec1565b95505060206134cc88828901612ec1565b945050604086013567ffffffffffffffff8111156134ed576134ec612e73565b5b6134f988828901613222565b935050606086013567ffffffffffffffff81111561351a57613519612e73565b5b61352688828901613222565b925050608086013567ffffffffffffffff81111561354757613546612e73565b5b61355388828901613463565b9150509295509295909350565b600067ffffffffffffffff82111561357b5761357a61310d565b5b602082029050602081019050919050565b600061359f61359a84613560565b61316d565b905080838252602082019050602084028301858111156135c2576135c16131b4565b5b835b818110156135eb57806135d78882612ec1565b8452602084019350506020810190506135c4565b5050509392505050565b600082601f83011261360a57613609613108565b5b813561361a84826020860161358c565b91505092915050565b6000806040838503121561363a57613639612e6e565b5b600083013567ffffffffffffffff81111561365857613657612e73565b5b613664858286016135f5565b925050602083013567ffffffffffffffff81111561368557613684612e73565b5b61369185828601613222565b9150509250929050565b600081519050919050565b600082825260208201905092915050565b6000819050602082019050919050565b6136d081612ed6565b82525050565b60006136e283836136c7565b60208301905092915050565b6000602082019050919050565b60006137068261369b565b61371081856136a6565b935061371b836136b7565b8060005b8381101561374c57815161373388826136d6565b975061373e836136ee565b92505060018101905061371f565b5085935050505092915050565b6000602082019050818103600083015261377381846136fb565b905092915050565b60006020828403121561379157613790612e6e565b5b600082013567ffffffffffffffff8111156137af576137ae612e73565b5b6137bb848285016132d7565b91505092915050565b6000806000606084860312156137dd576137dc612e6e565b5b600084013567ffffffffffffffff8111156137fb576137fa612e73565b5b613807868287016135f5565b935050602061381886828701612ef7565b925050604061382986828701612ef7565b9150509250925092565b60008060006060848603121561384c5761384b612e6e565b5b600061385a86828701612ec1565b935050602084013567ffffffffffffffff81111561387b5761387a612e73565b5b61388786828701613222565b925050604084013567ffffffffffffffff8111156138a8576138a7612e73565b5b6138b486828701613222565b9150509250925092565b6000806000606084860312156138d7576138d6612e6e565b5b60006138e586828701612ec1565b93505060206138f686828701612ef7565b925050604061390786828701612ef7565b9150509250925092565b6000806040838503121561392857613927612e6e565b5b600061393685828601612ef7565b925050602083013567ffffffffffffffff81111561395757613956612e73565b5b613963858286016132d7565b9150509250929050565b600080600080600060a0868803121561398957613988612e6e565b5b600086013567ffffffffffffffff8111156139a7576139a6612e73565b5b6139b3888289016135f5565b95505060206139c488828901612ef7565b94505060406139d588828901612ef7565b935050606086013567ffffffffffffffff8111156139f6576139f5612e73565b5b613a02888289016132d7565b925050608086013567ffffffffffffffff811115613a2357613a22612e73565b5b613a2f888289016132d7565b9150509295509295909350565b613a4581612e98565b82525050565b6000602082019050613a606000830184613a3c565b92915050565b613a6f81612ffb565b8114613a7a57600080fd5b50565b600081359050613a8c81613a66565b92915050565b60008060408385031215613aa957613aa8612e6e565b5b6000613ab785828601612ec1565b9250506020613ac885828601613a7d565b9150509250929050565b60008060408385031215613ae957613ae8612e6e565b5b6000613af785828601612ec1565b9250506020613b0885828601612ec1565b9150509250929050565b600080600080600060a08688031215613b2e57613b2d612e6e565b5b6000613b3c88828901612ec1565b9550506020613b4d88828901612ec1565b9450506040613b5e88828901612ef7565b9350506060613b6f88828901612ef7565b925050608086013567ffffffffffffffff811115613b9057613b8f612e73565b5b613b9c88828901613463565b9150509295509295909350565b600060208284031215613bbf57613bbe612e6e565b5b6000613bcd84828501612ec1565b91505092915050565b7f455243313135353a2061646472657373207a65726f206973206e6f742061207660008201527f616c6964206f776e657200000000000000000000000000000000000000000000602082015250565b6000613c32602a83612dc1565b9150613c3d82613bd6565b604082019050919050565b60006020820190508181036000830152613c6181613c25565b9050919050565b7f4e487b7100000000000000000000000000000000000000000000000000000000600052602260045260246000fd5b60006002820490506001821680613caf57607f821691505b60208210811415613cc357613cc2613c68565b5b50919050565b600081905092915050565b60008190508160005260206000209050919050565b60008154613cf681613c97565b613d008186613cc9565b94506001821660008114613d1b5760018114613d2c57613d5f565b60ff19831686528186019350613d5f565b613d3585613cd4565b60005b83811015613d5757815481890152600182019150602081019050613d38565b838801955050505b50505092915050565b6000613d7382613031565b613d7d8185613cc9565b9350613d8d81856020860161303c565b80840191505092915050565b6000613da58285613ce9565b9150613db18284613d68565b91508190509392505050565b7f496e76616c696420686f6c646572206164647265737300000000000000000000600082015250565b6000613df3601683612dc1565b9150613dfe82613dbd565b602082019050919050565b60006020820190508181036000830152613e2281613de6565b9050919050565b7f41727261792073686f756c64206e6f7420626520656d7074792e000000000000600082015250565b6000613e5f601a83612dc1565b9150613e6a82613e29565b602082019050919050565b60006020820190508181036000830152613e8e81613e52565b9050919050565b7f5f746f6b656e5552492073686f756c64206e6f7420626520656d707479000000600082015250565b6000613ecb601d83612dc1565b9150613ed682613e95565b602082019050919050565b60006020820190508181036000830152613efa81613ebe565b9050919050565b7f4e487b7100000000000000000000000000000000000000000000000000000000600052603260045260246000fd5b7f455243313135353a2063616c6c6572206973206e6f7420746f6b656e206f776e60008201527f6572206f7220617070726f766564000000000000000000000000000000000000602082015250565b6000613f8c602e83612dc1565b9150613f9782613f30565b604082019050919050565b60006020820190508181036000830152613fbb81613f7f565b9050919050565b7f455243313135353a206163636f756e747320616e6420696473206c656e67746860008201527f206d69736d617463680000000000000000000000000000000000000000000000602082015250565b600061401e602983612dc1565b915061402982613fc2565b604082019050919050565b6000602082019050818103600083015261404d81614011565b9050919050565b7f4e487b7100000000000000000000000000000000000000000000000000000000600052601160045260246000fd5b600061408e82612ed6565b91507fffffffffffffffffffffffffffffffffffffffffffffffffffffffffffffffff8214156140c1576140c0614054565b5b600182019050919050565b7f6e65774261736555524920697320656d7074792e000000000000000000000000600082015250565b6000614102601483612dc1565b915061410d826140cc565b602082019050919050565b60006020820190508181036000830152614131816140f5565b9050919050565b7f456d707479206164647265737320617272617900000000000000000000000000600082015250565b600061416e601383612dc1565b915061417982614138565b602082019050919050565b6000602082019050818103600083015261419d81614161565b9050919050565b7f616d6f756e74206d757374206e6f7420626520656d7074790000000000000000600082015250565b60006141da601883612dc1565b91506141e5826141a4565b602082019050919050565b60006020820190508181036000830152614209816141cd565b9050919050565b7f746f6b656e55524920697320656d7074792e0000000000000000000000000000600082015250565b6000614246601283612dc1565b915061425182614210565b602082019050919050565b6000602082019050818103600083015261427581614239565b9050919050565b7f4f776e61626c653a206e6577206f776e657220697320746865207a65726f206160008201527f6464726573730000000000000000000000000000000000000000000000000000602082015250565b60006142d8602683612dc1565b91506142e38261427c565b604082019050919050565b60006020820190508181036000830152614307816142cb565b9050919050565b7f4f776e61626c653a2063616c6c6572206973206e6f7420746865206f776e6572600082015250565b6000614344602083612dc1565b915061434f8261430e565b602082019050919050565b6000602082019050818103600083015261437381614337565b9050919050565b7f455243313135353a206d696e7420746f20746865207a65726f2061646472657360008201527f7300000000000000000000000000000000000000000000000000000000000000602082015250565b60006143d6602183612dc1565b91506143e18261437a565b604082019050919050565b60006020820190508181036000830152614405816143c9565b9050919050565b7f455243313135353a2069647320616e6420616d6f756e7473206c656e6774682060008201527f6d69736d61746368000000000000000000000000000000000000000000000000602082015250565b6000614468602883612dc1565b91506144738261440c565b604082019050919050565b600060208201905081810360008301526144978161445b565b9050919050565b60006144a982612ed6565b91506144b483612ed6565b9250827fffffffffffffffffffffffffffffffffffffffffffffffffffffffffffffffff038211156144e9576144e8614054565b5b828201905092915050565b6000604082019050818103600083015261450e81856136fb565b9050818103602083015261452281846136fb565b90509392505050565b7f455243313135353a207472616e7366657220746f20746865207a65726f20616460008201527f6472657373000000000000000000000000000000000000000000000000000000602082015250565b6000614587602583612dc1565b91506145928261452b565b604082019050919050565b600060208201905081810360008301526145b68161457a565b9050919050565b7f455243313135353a20696e73756666696369656e742062616c616e636520666f60008201527f72207472616e7366657200000000000000000000000000000000000000000000602082015250565b6000614619602a83612dc1565b9150614624826145bd565b604082019050919050565b600060208201905081810360008301526146488161460c565b9050919050565b7f455243313135353a206275726e2066726f6d20746865207a65726f206164647260008201527f6573730000000000000000000000000000000000000000000000000000000000602082015250565b60006146ab602383612dc1565b91506146b68261464f565b604082019050919050565b600060208201905081810360008301526146da8161469e565b9050919050565b7f455243313135353a206275726e20616d6f756e7420657863656564732062616c60008201527f616e636500000000000000000000000000000000000000000000000000000000602082015250565b600061473d602483612dc1565b9150614748826146e1565b604082019050919050565b6000602082019050818103600083015261476c81614730565b9050919050565b60006040820190506147886000830185612f4c565b6147956020830184612f4c565b9392505050565b7f455243313135353a2073657474696e6720617070726f76616c2073746174757360008201527f20666f722073656c660000000000000000000000000000000000000000000000602082015250565b60006147f8602983612dc1565b91506148038261479c565b604082019050919050565b60006020820190508181036000830152614827816147eb565b9050919050565b600081519050919050565b600082825260208201905092915050565b60006148558261482e565b61485f8185614839565b935061486f81856020860161303c565b6148788161306f565b840191505092915050565b600060a0820190506148986000830188613a3c565b6148a56020830187613a3c565b81810360408301526148b781866136fb565b905081810360608301526148cb81856136fb565b905081810360808301526148df818461484a565b90509695505050505050565b6000815190506148fa81612fa2565b92915050565b60006020828403121561491657614915612e6e565b5b6000614924848285016148eb565b91505092915050565b60008160e01c9050919050565b600060033d11156149595760046000803e61495660005161492d565b90505b90565b600060443d101561496c576149ef565b614974612e64565b60043d036004823e80513d602482011167ffffffffffffffff8211171561499c5750506149ef565b808201805167ffffffffffffffff8111156149ba57505050506149ef565b80602083010160043d0385018111156149d75750505050506149ef565b6149e68260200185018661313c565b82955050505050505b90565b7f455243313135353a207472616e7366657220746f206e6f6e2d4552433131353560008201527f526563656976657220696d706c656d656e746572000000000000000000000000602082015250565b6000614a4e603483612dc1565b9150614a59826149f2565b604082019050919050565b60006020820190508181036000830152614a7d81614a41565b9050919050565b7f455243313135353a204552433131353552656365697665722072656a6563746560008201527f6420746f6b656e73000000000000000000000000000000000000000000000000602082015250565b6000614ae0602883612dc1565b9150614aeb82614a84565b604082019050919050565b60006020820190508181036000830152614b0f81614ad3565b9050919050565b600060a082019050614b2b6000830188613a3c565b614b386020830187613a3c565b614b456040830186612f4c565b614b526060830185612f4c565b8181036080830152614b64818461484a565b90509695505050505050565b7f455243313135353a206275726e20616d6f756e74206578636565647320746f7460008201527f616c537570706c79000000000000000000000000000000000000000000000000602082015250565b6000614bcc602883612dc1565b9150614bd782614b70565b604082019050919050565b60006020820190508181036000830152614bfb81614bbf565b905091905056fea2646970667358221220806fbd0abfae5c840ac03b11cfba253dd6f8568525e47ca9ceb72b4a4cc35a8664736f6c63430008090033",
  "immutableReferences": {},
  "source": "// SPDX-License-Identifier: MIT\r\npragma solidity ^0.8.9;\r\n\r\nimport '../node_modules/@openzeppelin/contracts/token/ERC1155/ERC1155.sol';\r\nimport '../node_modules/@openzeppelin/contracts/access/Ownable.sol';\r\nimport '../node_modules/@openzeppelin/contracts/token/ERC1155/extensions/ERC1155Burnable.sol';\r\nimport '../node_modules/@openzeppelin/contracts/token/ERC1155/extensions/ERC1155Supply.sol';\r\nimport '../node_modules/@openzeppelin/contracts/token/ERC1155/extensions/ERC1155URIStorage.sol';\r\nimport '../node_modules/@openzeppelin/contracts/utils/Strings.sol';\r\n\r\n/*\r\n * @dev  NFT  (whitelist .)\r\n */\r\ncontract Winenwin is ERC1155, Ownable, ERC1155Burnable, ERC1155Supply, ERC1155URIStorage {\r\n    using Strings for uint256;\r\n    string public name;\r\n    string public symbol;\r\n    string private _baseURI = '';\r\n\r\n    /*\r\n     * @dev    \r\n     * @notice _tokenURIs : tokenURI  key, value\r\n     */\r\n    mapping(uint256 => string) private _tokenURIs;\r\n\r\n    /*\r\n     * @dev  \r\n     * @param _uri: NFT IPFS \r\n     * @param _name:  \r\n     * @param _symbol:  \r\n     */\r\n    constructor(string memory _uri, string memory _name, string memory _symbol) ERC1155(_uri) {\r\n        name = _name;\r\n        symbol = _symbol;\r\n        _setBaseURI(_uri);\r\n    }\r\n\r\n    /*\r\n     * @dev  (NFTs)\r\n     * @param holder:           \r\n     * @param tokenIds:  NFT ID\r\n     * @param amounts:  NFT \r\n     * @param _tokenURI :  \r\n     */\r\n    function mintMembershipNFTs(\r\n        address holder,\r\n        uint256[] memory tokenIds,\r\n        uint256[] memory amounts,\r\n        string memory baseURI,\r\n        string memory _tokenURI\r\n    ) external onlyOwner {\r\n        require(holder != address(0), 'Invalid holder address');\r\n        require(amounts.length > 0, 'Array should not be empty.');\r\n        require(bytes(_tokenURI).length > 0, '_tokenURI should not be empty');\r\n        _setBaseURI(baseURI);\r\n        _setURI(tokenIds[0], _tokenURI);\r\n        _mintBatch(holder, tokenIds, amounts, '');\r\n    }\r\n\r\n    /*\r\n     * @dev NFT   \r\n     * @param holder:   \r\n     * @param tokenId:  NFT ID\r\n     * @param amount:  NFT \r\n     */\r\n    function transferMembershipNFT(address holder, uint256 tokenId, uint256 amount) external {\r\n        require(holder != address(0), 'Invalid holder address');\r\n        setApprovalForAll(holder, true);\r\n        safeTransferFrom(msg.sender, holder, tokenId, amount, '');\r\n    }\r\n\r\n    /*\r\n     * @dev   (NFTs)\r\n     * @param holders:   \r\n     * @param tokenId:  NFT ID\r\n     * @param amount:  NFT \r\n     */\r\n    function mintMembershipBatchNFTs(\r\n        address[] memory holders,\r\n        uint256 tokenId,\r\n        uint256 amount,\r\n        string memory baseURI,\r\n        string memory _tokenURI\r\n    ) external onlyOwner {\r\n        require(amount != 0, 'amount must not be empty');\r\n        require(holders.length > 0, 'Empty address array');\r\n\r\n        _setBaseURI(baseURI);\r\n\r\n        for (uint256 i = 0; i < holders.length; i++) {\r\n            address holder = holders[i];\r\n            require(holder != address(0), 'Invalid holder address');\r\n\r\n            _setURI(tokenId, _tokenURI);\r\n            _mint(holder, tokenId, amount, '');\r\n        }\r\n    }\r\n\r\n    /*\r\n     * @dev   \r\n     * @param holder:   \r\n     * @param tokenId:  NFT ID\r\n     * @param amount:  NFT \r\n     */\r\n    function transferMembershipBatchNFTs(address[] memory holders, uint256 tokenId, uint256 amount) external {\r\n        require(holders.length > 0, 'Empty address array');\r\n        require(amount != 0, 'amount must not be empty');\r\n        for (uint256 i = 0; i < holders.length; i++) {\r\n            address holder = holders[i];\r\n            require(holder != address(0), 'Invalid holder address');\r\n            setApprovalForAll(holder, true);\r\n            safeTransferFrom(msg.sender, holder, tokenId, amount, '');\r\n        }\r\n    }\r\n\r\n    /*\r\n     * @dev  URI  \r\n     * @params newBaseURI :    URI\r\n     */\r\n    function setBaseURI(string memory newBaseURI) external onlyOwner {\r\n        require(bytes(newBaseURI).length != 0, 'newBaseURI is empty.');\r\n        _setBaseURI(newBaseURI);\r\n    }\r\n\r\n    /*\r\n     * @dev token URI \r\n     * @params tokenId :  ,      URI   \r\n     * @params tokenURI : tokenId   URI\r\n     */\r\n    function setURI(uint256 tokenId, string memory tokenURI) public onlyOwner {\r\n        require(bytes(tokenURI).length != 0, 'tokenURI is empty.');\r\n        _setURI(tokenId, tokenURI);\r\n    }\r\n\r\n    function uri(uint256 tokenId) public view virtual override(ERC1155, ERC1155URIStorage) returns (string memory) {\r\n        string memory tokenURI = _tokenURIs[tokenId];\r\n        return bytes(tokenURI).length > 0 ? string(abi.encodePacked(_baseURI, tokenURI)) : super.uri(tokenId);\r\n    }\r\n\r\n    function _beforeTokenTransfer(\r\n        address operator,\r\n        address from,\r\n        address to,\r\n        uint256[] memory ids,\r\n        uint256[] memory amounts,\r\n        bytes memory data\r\n    ) internal override(ERC1155, ERC1155Supply) {\r\n        super._beforeTokenTransfer(operator, from, to, ids, amounts, data);\r\n    }\r\n\r\n    // Fallback function to reject accidental transfers\r\n    fallback() external {\r\n        revert('Fallback function is not supported');\r\n    }\r\n}\r\n",
  "sourcePath": "C:\\BC\\Nyes-Test\\sol\\contracts\\Winenwin.sol",
  "compiler": {
    "name": "solc",
    "version": "0.8.9+commit.e5eed63a.Emscripten.clang"
  },
  "schemaVersion": "3.4.14",
  "updatedAt": "2023-06-05T07:49:55.019Z",
  "networkType": "ethereum",
  "devdoc": {
    "kind": "dev",
    "methods": {
      "balanceOf(address,uint256)": {
        "details": "See {IERC1155-balanceOf}. Requirements: - `account` cannot be the zero address."
      },
      "balanceOfBatch(address[],uint256[])": {
        "details": "See {IERC1155-balanceOfBatch}. Requirements: - `accounts` and `ids` must have the same length."
      },
      "exists(uint256)": {
        "details": "Indicates whether any token exist with a given id, or not."
      },
      "isApprovedForAll(address,address)": {
        "details": "See {IERC1155-isApprovedForAll}."
      },
      "owner()": {
        "details": "Returns the address of the current owner."
      },
      "renounceOwnership()": {
        "details": "Leaves the contract without owner. It will not be possible to call `onlyOwner` functions. Can only be called by the current owner. NOTE: Renouncing ownership will leave the contract without an owner, thereby disabling any functionality that is only available to the owner."
      },
      "safeBatchTransferFrom(address,address,uint256[],uint256[],bytes)": {
        "details": "See {IERC1155-safeBatchTransferFrom}."
      },
      "safeTransferFrom(address,address,uint256,uint256,bytes)": {
        "details": "See {IERC1155-safeTransferFrom}."
      },
      "setApprovalForAll(address,bool)": {
        "details": "See {IERC1155-setApprovalForAll}."
      },
      "supportsInterface(bytes4)": {
        "details": "See {IERC165-supportsInterface}."
      },
      "totalSupply(uint256)": {
        "details": "Total amount of tokens in with a given id."
      },
      "transferOwnership(address)": {
        "details": "Transfers ownership of the contract to a new account (`newOwner`). Can only be called by the current owner."
      }
    },
    "version": 1
  },
  "userdoc": {
    "kind": "user",
    "methods": {},
    "version": 1
  }
}